:020000040000FA
:0400000000EF01F01C
:0400080000EF01F014
:0400180000EF01F004
:100200000001600ED36E400E9B6E006A7E6A7F6AAC
:10021000240EAC6E080EB86E100EAF6E000EB06EEF
:10022000800EAB6E456A466A476A486AE00E476EC2
:100230000400453EFDD7463EFBD7473EF9D7580E52
:10024000016E060E026E100E446E2AEC01F0140EC2
:10025000C86E47D1496A760E4A6E020E4B6E500E3A
:10026000C86E800EC76E280EC66E556A566A4BC0A1
:10027000FAFF4A50F96E1200C5B401D008D0554AB1
:10028000562A55506008EA0E5654D8B01200556AE6
:10029000566A760E4A6E020E4B6E12009EA601D072
:1002A00008D0554A562A55506008EA0E5654D8B020
:1002B0001200C584556A566A780E4A6E020E4B6E5D
:1002C00012009EA601D008D0554A562A5550600803
:1002D000EA0E5654D8B012009E96556A566A53C01C
:1002E000C9FF9C0E4A6E020E4B6E12009EA601D0F4
:1002F00008D0554A562A55506008EA0E5654D8B0D0
:1003000012009E96556A566A4FC0C9FFC20E4A6EC9
:10031000020E4B6E1200C5B001D008D0554A562AC5
:1003200055506008EA0E5654D8B012009E964EC042
:10033000C9FF556A566AEC0E4A6E020E4B6E1200E9
:10034000C580556A566A160E4A6E030E4B6E120031
:10035000C5B401D008D0554A562A55506008EA0E57
:100360005654D8B01200556A566A760E4A6E020E7E
:100370004B6E1200C5B801D008D0554A562A5550C8
:100380006008EA0E5654D8B01200556A566A4C2AD4
:1003900050504C5CD8A03CD0C584500E4A6E030E21
:1003A0004B6E12009EA601D008D0554A562A5550D1
:1003B0006008EA0E5654D8B01200556A566A51C009
:1003C000E9FF52C0EAFF4C50E9264D50EA22C9CF5E
:1003D000EFFFEFCF53F0496850C054F0540654502B
:1003E0004C5CD8A002D0C58A02D0C59A00D0C5887E
:1003F000740E4A6E030E4B6E12009EA601D008D0FA
:10040000554A562A55506008EA0E5654D8B0120084
:10041000556A566A9E96C586A40E4A6E030E4B6EAA
:100420001200C5B201D008D0554A562A555060086E
:10043000EA0E5654D8B01200556A566A9E964EC0BF
:1004400054F0548054C0C9FFFA0E4A6E030E4B6E2E
:1004500012009EA601D008D0554A562A5550600871
:10046000EA0E5654D8B01200556A566AC582220E5A
:100470004A6E040E4B6E12009EA601D008D0554A5B
:10048000562A55506008EA0E5654D8B01200556AE4
:10049000566A9E964FC0C9FF520E4A6E040E4B6EAE
:1004A0001200C5B001D008D0554A562A55506008F0
:1004B000EA0E5654D8B01200556A566A9E964EC03F
:1004C000C9FF780E4A6E040E4B6E1200496AC58051
:1004D000556A566A4C6A4D6AA20E4A6E040E4B6EFD
:1004E0001200040037EC01F077EC02F0FAD702C0FA
:1004F000FAFF0150F96E760E4A6202D0020E4B628C
:1005000012006A0E016E050E026E1200760E4A622D
:1005100002D0020E4B6207D0929A897AF60E016ED3
:10052000040E026E12009EA8120049A01200496A31
:1005300053C0ADFF442A0D0E44641200F60E016E46
:10054000040E026E12009EA81200E50EAD6E0C0E97
:10055000016E050E026E12009EA81200FF0EAD6E17
:10056000460E016E050E026E1200760E4A6202D031
:10057000020E4B621200D00E4E6E3B0E4F6E040EFA
:10058000516E000E526E0E0E506E66EC02F0446A12
:10059000580E016E050E026E1200760E4A6202D0EF
:1005A000020E4B621200D00E4E6E190E4F6E000EF0
:1005B000536EA0EC01F06A0E016E050E026E120081
:1005C000760E4A6202D0020E4B621200D00E4E6EC0
:1005D0001C0E4F6E000E536EA0EC01F09A0E016ED1
:1005E000050E026E1200760E4A6202D0020E4B62B7
:1005F0001200D00E4E6E1B0E4F6E000E536EA0EC0E
:1006000001F0C00E016E050E026E1200760E4A62F7
:1006100002D0020E4B621200D00E4E6E6A0E4F6E6A
:10062000000E536EA0EC01F0E60E016E050E026E98
:100630001200760E4A6202D0020E4B621200D00EF9
:100640004E6E370E4F6E020E536EA0EC01F00C0E84
:10065000016E060E026E1200760E4A6202D0020E83
:100660004B621200D00E4E6E6B0E4F6E010E536E2B
:0E067000A0EC01F0320E016E060E026E1200BA
:00000001FF
